:0400000027EF0DF0E9
:1000080000C01EF001C01DF002C01CF003C01BF0B0
:1000180004C01AF005C019F008C018F009C017F09C
:100028000AC016F00BC015F0E1CF27F0E2CF28F098
:10003800E9CF25F0EACF26F0F3CF23F0F4CF24F070
:10004800F5CF22F0F8CF1FF0F7CF20F0F6CF21F050
:1000580008EC0CF022C0F5FF1FC0F8FF20C0F7FF26
:1000680021C0F6FF23C0F3FF24C0F4FF1EC000F038
:100078001DC001F01CC002F01BC003F01AC004F040
:1000880019C005F018C008F017C009F016C00AF02A
:1000980015C00BF025C0E9FF26C0EAFF27C0E1FF25
:0600A80028C0E2FF110078
:1000AE001E0E716E100E0101316F040E326F31C1D2
:1000BE00E1FF32C1E2FFE69E31C1E1FF32C1E2FF54
:1000CE00E69C040E3125E16E000E3221E26EE68CC6
:1000DE00180E356F040E366F35C1E1FF36C1E2FFE3
:1000EE00E69E35C1E1FF36C1E2FFE69C040E3525E2
:1000FE00E16E000E3621E26EE68C020E3125E16EC7
:10010E00000E3221E26E50C1E6FF51C1E6FF010E34
:10011E003125E16E000E3221E26E400EE66E31C1E7
:10012E00E9FF32C1EAFFEECF00F031C1E1FF32C18B
:10013E00E2FF400E0014E66E31C1E9FF32C1EAFF64
:10014E00EECF00F0880E001231C1E1FF32C1E2FFA6
:10015E0000C0E6FF31C152F132C153F1040E311924
:08016E00006E00C031F1120027
:100176000B6A0A6A096A00500402F4CF09F0F3CF49
:1001860008F001500502F4CF0BF0F3CF0AF000504F
:100196000502F3500926F4500A22E86A0B220150A0
:1001A6000402F3500926F4500A22E86A0B2208C01A
:1001B60000F009C001F00AC002F00BC003F0120003
:1001C600000E01011F5D02E1080E1E5D10E21EC158
:1001D60003F01FC104F04E51000A03E1010E4E6FF9
:1001E60005D04E51010A02E1020E4E6F04D0080EF0
:1001F600036E000E046E33C1E1FF34C1E2FFE692E6
:1002060033C1E1FF34C1E2FFE69033C1E9FF34C1F7
:10021600EAFFEECF00F033C1E1FF34C1E2FF045044
:100226000010E66E010E3325E16E000E3421E26EFB
:1002360003C0E6FF03501E5D006E04501F59016E99
:1002460000C01EF101C01FF1280E436F040E446F5B
:100256001DB12FD0035004102BE01AC1F6FF1BC1AD
:10026600F7FF1CC1F8FF0900F5CF00F043C1E1FF1D
:1002760044C1E2FF00C0E6FF434B442B010E1A25A2
:10028600006E000E1B21016E000E1C21026E00C0C6
:100296001AF101C01BF102C01CF1010E035C006ED5
:1002A600000E0458016E00C003F001C004F0D2D75E
:1002B60024D00350041021E01AC1E9FF1BC1EAFF54
:1002C60043C1E1FF44C1E2FFEECFE6FF434B442BBF
:1002D600010E1A25006E000E1B21016E00C01AF1D8
:1002E60001C01BF1010E035C006E000E0458016E86
:0C02F60000C003F001C004F0DCD71200CF
:1003020001011D8F716A2D6B22C42EF12E51000A3C
:1003120003E1100E376F03D0200E376FC7DE1200D5
:1003220004012051800AD8A478D0C00E01011D6FAB
:1003320069D00101790E006E1C0E016E000E026E74
:1003420000C01AF101C01BF102C01CF1120E1E6F97
:10035200000E1F6F62D00101030E006E000E016ECF
:1003620022C404F0000E056E05DF210E0024E96EA2
:10037200010E0120EA6EEECF1AF1EECF1BF1EECFA5
:100382001CF1020E1A25F66E000E1B21F76E000EEE
:100392001C21F86E0900F5CF00F00900F5CF01F03D
:1003A20000C01EF101C01FF138D004012251010129
:1003B200585D23E3030E006E000E016E22C404F0AA
:1003C200000E056ED7DE240E0024E96E010E012018
:1003D200EA6EEECF1AF1EECF1BF1EECF1CF11AC18D
:1003E200F6FF1BC1F7FF1CC1F8FF0900F5CF00F0B3
:1003F20000C01EF1000E1F6F01D01D6B0ED0010157
:100402001D6B0BD004012351010A93E02351020A10
:0C041200A2E02351030AC9E0F2D7120057
:10041E0020C401F01F0E01160150010A01E094D014
:10042E0004012451000A01E08FD02151060A42E155
:10043E0037D001012E51010A17E1220E006E1C0E5B
:10044E00016E000E026E120E0026000E0122022216
:10045E0000C01AF101C01BF102C01CF1090E1E6F83
:10046E00000E1F6FC00E1D6F25D001012E51010A07
:10047E0012E1E30E006E1B0E016E000E026E00C046
:10048E001AF101C01BF102C01CF13F0E1E6F000ECF
:10049E001F6FC00E1D6F0ED00101800E1D6F0AD092
:1004AE0004012351210AC5E02351220ADEE0235123
:1004BE00230AF2E020C401F0600E0116050E006E54
:1004CE00005004E00132019EFF0FFBD70150010ADC
:1004DE0001E03AD026D038D037D0380E01011A6F4D
:1004EE00010E1B6F010E1E6F000E1F6FC10E1D6FD2
:1004FE002BD00101800E1D6F23C438F125D00101D0
:10050E00390E1A6F010E1B6F010E1E6F000E1F6F3C
:10051E00810E1D6F19D00101800E1D6F22C439F19D
:10052E0013D004012151010AD6E02151090AD4E069
:10053E002151020AD2E021510A0ADBE02151030ABD
:0A054E00DEE021510B0AE7E0120085
:1005580004012251010A13E120C401F01F0E011603
:100568000150000A0CE101011D8F04012151030A09
:1005780004E1010E0101206F02D00101206B04018A
:100588002251000AD8A48DD020C401F01F0E0116F4
:100598000150020AD8A485D024C401F00F0E011618
:1005A8000150000AD8B47DD001011D8F040124BF79
:1005B80016D024C403F00F0E031603C000F0000E7B
:1005C800016E0036009001362F0E0024E96E010EF0
:1005D8000120EA6EEECF04F0EECF05F015D024C46A
:1005E80003F00F0E031603C000F0000E016E003674
:1005F80000900136330E0024E96E010E0120EA6EE8
:10060800EECF04F0EECF05F02151030A07E104C054
:10061800E1FF05C0E2FF840EE66E43D024C400F07B
:100628000F0E0016700E026E0F0E036E005002269B
:10063800D8B0032A02C0E9FF03C0EAFFFE0EEE1499
:10064800006EEECF01F0FF0E011602C0E1FF03C0FD
:10065800E2FF00C0E6FF01C0E6FF24AF11D004C0EE
:10066800E1FF05C0E2FFE66A040E0418006E00C050
:1006780004F004C0E1FF05C0E2FF400EE66E11D0B1
:1006880004C0E1FF05C0E2FF880EE66E040E041800
:10069800006E00C004F004C0E1FF05C0E2FFC80E10
:0406A800E66E1200E8
:1006AC000401286B296B4AD001011D8F040128819C
:1006BC0001012051010A02E10401288354D00101F7
:1006CC001D8F51D001011D8F040124BF16D024C4ED
:1006DC0003F00F0E031603C000F0000E016E00367F
:1006EC00009001362F0E0024E96E010E0120EA6EF7
:1006FC00EECF04F0EECF05F015D024C403F00F0EAE
:10070C00031603C000F0000E016E00360090013697
:10071C00330E0024E96E010E0120EA6EEECF04F0D8
:10072C00EECF05F004C0E9FF05C0EAFFEECF01F003
:10073C0001A403D00401010E286F15D020C401F0D0
:10074C001F0E01160150000AAFE020C401F01F0E6D
:10075C0001160150010AB3E020C401F01F0E01166E
:10076C000150020AAFE001011DAF07D0280E1A6F2D
:0C077C00040E1B6F1D81020E1E6F120088
:100788006D9801011DBF49D03CAF28D0020E4F6FB4
:10079800010E3325E16E000E3421E26EE66A33C1A4
:1007A800E1FF34C1E2FFC80EE66E010E5425E16E8A
:1007B800000E5521E26E080EE66E020E5425E16E1B
:1007C800000E5521E26E280EE66E040EE66E54C148
:1007D800E1FF55C1E2FFC80EE66E1ED0010E54259A
:1007E800E16E000E5521E26E080EE66E020E5425EB
:1007F800E16E000E5521E26E200EE66E040EE66EE6
:1008080054C1E1FF55C1E2FF8C0EE66E33C1E1FF32
:1008180034C1E2FF840EE66E82D03CBF80D0040172
:1008280020AF55D001011F510401275D04E10101EA
:100838001E510401265D04E226C41EF127C41FF1DF
:10084800BEDC010E4F6F010E5425E16E000E5521DE
:10085800E26E080EE66E020E5425E16E000E55217A
:10086800E26E200EE66E040EE66E54C1E1FF55C13D
:10087800E2FF800EE66E596B010E5625E16E000E02
:100888005721E26E080EE66E020E5625E16E000E46
:100898005721E26E200EE66E040EE66E56C1E1FFA9
:1008A80057C1E2FF840EE66E010E596F020E332522
:1008B800E16E000E3421E26E280EE66E040EE66E3E
:1008C80033C1E1FF34C1E2FFC80EE66E28D0010152
:1008D800020E4F6F010E3325E16E000E3421E26ED9
:1008E800E66A33C1E1FF34C1E2FFC80EE66E010ECD
:1008F8005425E16E000E5521E26E080EE66E020EDA
:100908005425E16E000E5521E26E280EE66E040EA7
:10091800E66E54C1E1FF55C1E2FFC80EE66E120053
:10092800220E0101216F1C0E226F000E236F8B0E09
:10093800246F1C0E256F000E266F650E276F1C0E88
:10094800286F000E296F4B0E2A6F1C0E2B6F000E9E
:040958002C6F1200EE
:0A095C0001014B5301E05DDD1200C4
:10096600010E01015625E96E000E5721EA6EEECF03
:1009760000F000C002F0000E3E5D02E102503D5D57
:1009860003E23DC102F00AD002503D5D006E000E4A
:100996003E59016E00C03DF101C03EF1036A0250AE
:1009A600035C1CE2280EE96E040EEA6E0350E9268B
:1009B600D8B0EA2AEECF00F03AC1E1FF3BC1E2FF30
:1009C60000C0E6FF010E3A25006E000E3B21016EC7
:1009D60000C03AF101C03BF1032AE1D7000E006ED8
:1009E6003E51005C02E13D51000828E2010E54250B
:1009F600E16E000E5521E26E080EE66E020E5425DB
:100A0600E16E000E5521E26E280EE66E040EE66ECD
:100A160056C1E9FF57C1EAFFEECF00F000BC07D090
:100A260054C1E1FF55C1E2FFC80EE66E06D054C1BF
:100A3600E1FF55C1E2FF880EE66E19D0010E54257E
:100A4600E16E000E5521E26E080EE66E020E54258A
:100A5600E16E000E5521E26E200EE66E040EE66E85
:100A660054C1E1FF55C1E2FF840EE66E3C9F1200C1
:100A760020C401F0600E0116050E006E005004E061
:100A86000132019EFF0FFBD70150000A01E05ED044
:100A96003AD001011D8F080E376F58D03FDC56D073
:100AA6002DDC54D001012E0E1A6F010E1B6F1D8115
:100AB600010E1E6F1D8F4AD0F6DD48D04ADD46D0A6
:100AC6002D0E006E010E016E040124510026D8B0D1
:100AD600012A00C01AF101C01BF101011D81010E9E
:100AE6001E6F1D8F33D001011D8F2D0EE16E010E7D
:100AF600E26E04012451E126D8B0E22A22C4E6FFC0
:100B060025D024D023D004012151050AC2E0215169
:100B1600060AC4E02151090AC3E02151080AC2E0CD
:100B26002151000AC9E02151010AC8E02151030AF6
:100B3600C5E021510A0AC4E021510B0AD4E0215133
:0E0B4600070ADFE021510C0ADDE0DCD71200C7
:0E0B5400160E6F6E9F0E6B6E3B0E696E1200DA
:100B620001014F6B33C1E1FF34C1E2FFE66A040EBB
:100B72003319E16E34C1E2FF000EE21AE66A3CAFBD
:060B820001D03C9F1200AF
:100B8800040E01013319006E00C033F13751080A11
:100B98000AE122C46EFF6E50000803E2100E376FA0
:100BA80002D0040E376F4F51010A3BE1020E332584
:100BB800E16E000E3421E26E280EE66E040EE66E3B
:100BC800E3EC00F04E51020A07E133C1E1FF34C102
:100BD800E2FF840EE66E24D0040E3319006E00C0C6
:100BE80033F133C1E9FF34C1EAFFEECF00F000BCB6
:100BF8000CD0040E3319006E00C033F133C1E1FF8D
:100C080034C1E2FFC80EE66E0BD0040E3319006E35
:100C180000C033F133C1E1FF34C1E2FF880EE66E54
:060C280001D09BDF120069
:100C2E0001014F51020A02E197DE1ED093DF5951A6
:100C3E00000A19E1010E5425E16E000E5521E26EF7
:100C4E00080EE66E020E5425E16E000E5521E26E80
:100C5E00200EE66E040EE66E54C1E1FF55C1E2FFB2
:0A0C6E008C0EE66E01D0596B1200E7
:100C780057DE526B536B496B4A6B6A6A686A66DF68
:100C88006D8C6E6A716A6D9C5B6B5C6B000E5C5D53
:100C980002E1080E5B5D17E25BC100F05CC101F088
:100CA800003600900136003600900136000E002410
:100CB800E16E040E0120E26EE66AE66AE66AE66A1A
:100CC8005B4B5C2BE3D7160E706E68A603D0F70E4D
:100CD8006816FBD71D6B3C6B3D6B3E6B6D98080E21
:0C0CE800336F040E346F2E6B376B12005C
:100CF40070A01CD056C1E9FF57C1EAFFEECF01F046
:100D04000150800A12E133C1E9FF34C1EAFFEECF9A
:100D140001F0000E000A02E1840E011806E156C13A
:100D2400E1FF57C1E2FF8C0EE66E7090DF0E68168D
:020D34001200AB
:0A0D36006984EF0E68166D8212004A
:100D400033C1E9FF34C1EAFFEECF00F000AE05D0B9
:100D500033C1E1FF34C1E2FFE66A01014E6B4F6B24
:0E0D60001E6B1F6B1D6B87DEF9DD0EDD1200B2
:040D6E00A19A120034
:100D72006D92699468A403D0FB0E6816FBD712002B
:100D8200000E01016D1902E1000E6C1902E1016A07
:100D92000AD06CC1E9FF6DC1EAFFEECF00F0000E90
:0C0DA20000BE010E016E01C000F0120046
:100DAE0001016D51000A12E06CC100F0000E016EDF
:100DBE00003600900136330E0024E96E010E01203C
:100DCE00EA6EEECF04F0EECF05F011D06CC100F05C
:100DDE00000E016E0036009001362F0E0024E96ED3
:100DEE00010E0120EA6EEECF04F0EECF05F0020EFA
:100DFE000424E16E000E0520E26E6EC1E6FF6FC1A7
:100E0E00E6FF010E0424E16E000E0520E26E70C1B5
:100E1E00E6FF04C0E9FF05C0EAFFEECF00F004C014
:100E2E00E1FF05C0E2FF400E0014E66E04C0E9FFCC
:100E3E0005C0EAFFEECF00F0880E001204C0E1FFFD
:100E4E0005C0E2FF00C0E6FF6D51000A1BE06CC159
:100E5E0000F0000E016E003600900136330E0024B5
:100E6E00026E010E0120036E02C0E9FF03C0EAFF0D
:100E7E00040EEE18006E02C0E1FF03C0E2FF00C0D8
:100E8E00E6FF1AD06CC100F0000E016E0036009025
:100E9E0001362F0E0024026E010E0120036E02C0D9
:100EAE00E9FF03C0EAFF040EEE18006E02C0E1FF78
:100EBE0003C0E2FF00C0E6FF04C000F005C001F071
:020ECE00120010
:100ED00001013751000A0AE16D6A696A3BDE6DB6AD
:100EE00002D06D86FCD70101010E376F3751010A20
:100EF00008E16DBA06D0686A696A69806988020E7D
:100F0000376F68A405D069A403D0FB0E681631DFE3
:100F10006DA202D02CDFD4D068A018D069A016D062
:100F2000ABDE040E376F200E0401026F040E036F58
:100F3000080E016F000E0015006E00C000F48C0E4C
:100F40000011006E00C000F4FE0E681668A805D0FF
:100F500069A803D0F0DEEF0E681668AC04D069AC67
:100F600002D0BF0E681668AA03D069AA01D0C2DEFB
:100F700068A202D069B26A6A040E0101375D02E21A
:100F8000F6DE9ED069A69BD06D6B040E6D5DD8B069
:100F900096D068A691D06CCF5AF1F70E6816780EED
:100FA0005A15016E0150000AD8A485D0FD0E5A15BD
:100FB000016E026AFF0E0216000E021802E1000E18
:100FC00001186BE17E0E5A15016E01C003F0033269
:100FD000039E03C000F0000E016E00360090013643
:100FE000003600900136000E0024026E040E01202F
:100FF000036E02C056F103C057F102C054F103C0A2
:1010000055F1040E5419006E00C054F102C0E9FFFE
:1010100003C0EAFFEECF00F000C001F03C0E011665
:101020000132019E0132019E01500D0A34E1020E8F
:101030005625E96E000E5721EA6EEECF01F0EECF95
:1010400002F00250040A02E1280E011822E1020E09
:101050005625E16E000E5721E26E200EE66E040E5C
:10106000E66E6C6B080E6C5D14E2200EE16E040EF1
:10107000E26E6C51E126D8B0E22A280EE96E040E29
:10108000EA6E6C51E926D8B0EA2AEECFE6FF6C2B67
:10109000E9D756DE01D0CBDD0DD0FD0E5A15016E1D
:1010A000026AFF0E0216000E021802E1040E011879
:1010B00001E16ADD00D001D002D06D2B66D757DE8A
:0210C00012001C
:1010C200790E006E1C0E016E000E026E0E0E0024D2
:1010D200F66E000E0120F76E000E0220F86E090077
:1010E200F5CF03F003C004F00F0E0024F66E000EDD
:1010F2000120F76E000E0220F86E0900F5CF01F014
:101102000150035C12E2790E006E1C0E016E000E9D
:10111200026E0F0E0024F66E000E0120F76E000E16
:101122000220F86E0900F5CF04F0790E006E1C0E55
:10113200016E000E026E100E0024F66E000E0120EB
:10114200F76E000E0220F86E0900F5CF01F0015093
:10115200045C12E2790E006E1C0E016E000E026E2D
:10116200100E0024F66E000E0120F76E000E022013
:0E117200F86E0900F5CF04F004C000F0120082
:10118000200E0101375D03E36DB201D002D0006A89
:101190004ED049C16CF14AC16DF1F3DD005246E118
:1011A00069C16CF1010E6D6F66C16EF167C16FF1BF
:1011B00068C170F1FCDD00C049F101C04AF1456B26
:1011C000466B476B486B49C16CF14AC16DF1D9DD83
:1011D000005217E0200E375D03E36DB201D002D05C
:1011E000006A25D0010E016E0150000A01E170DE97
:1011F0000101455146114711481102E0006A17D01C
:10120000E2D749C16AF14AC16BF1000E4A1902E105
:10121000000E491909E0010E6A25E96E000E6B21E6
:10122000EA6EEECF00F003D0006A01D0006A12002F
:0A123000D08EA28AA08AF28E12006E
:10123A00010166517A0806E3610E665D03E3010E59
:08124A00006E01D0006A1200E1
:10125200010166515A0806E3410E665D03E3010E81
:08126200006E01D0006A1200C9
:10126A000101696B6A6B6B6B020E6625F66E000EE6
:10127A006721F76E000E6821F86E0900F5CF05F0B8
:10128A00030E6625F66E000E6721F76E000E6821C2
:10129A00F86E0900F5CF00F000C003F0000E046EEE
:1012AA0003C001F0006A05500024066E000E0120FA
:1012BA00076E66C108F067C109F068C10AF0010E3D
:1012CA000824F66E000E0920F76E000E0A20F86E4A
:1012DA000900F5CF01F00150020A1BE1060E0824AD
:1012EA00F66E000E0920F76E000E0A20F86E09004D
:1012FA00F5CF01F00150695D0CE2060E0824F66E86
:10130A00000E0920F76E000E0A20F86E0900F5CFCC
:10131A0069F1010E0824F66E000E0920F76E000E20
:10132A000A20F86E0900F5CF01F00150040A1BE10A
:10133A00080E0824F66E000E0920F76E000E0A2029
:10134A00F86E0900F5CF01F00150695D0CE2080E54
:10135A000824F66E000E0920F76E000E0A20F86EB9
:10136A000900F5CF69F108C0F6FF09C0F7FF0AC006
:10137A00F8FF0900F5CF00F000506A25016E000E53
:10138A006B21026E01C06AF102C06BF10750025C68
:10139A0002E10650015C01E30FD008C0F6FF09C064
:1013AA00F7FF0AC0F8FF0900F5CF00F00050082641
:0E13BA00000E09220A2283D769C100F012003A
:1013C80001016351390806E3300E635D03E3010E42
:0813D800006E01D0006A120052
:1013E000010163511F0805E263517F0A02E0006AB0
:0813F00002D0010E006E120094
:1013F80001013751000A0BE16D6A696AAAEC05F030
:1014080013DF6DB602D06D86FCD7010E376F120060
:1014180063C166F164C167F165C168F1010E01013C
:06142800696FAADE12004C
:10142E0063C166F103DF005207E163C166F10ADFB3
:0E143E00005202E1006A02D0010E006E1200A0
:10144C00010163517A0804E3610E635DD8B0639BBC
:06145C0063C100F0120064
:101462002FDE00C063F1220E0101666F1C0E676F52
:10147200000E686FF9DE00C064F16351005C03E2A4
:0C14820063C100F002D064C100F0120051
:10148E00E9DF00C058F1010E4B6F5FC150F160C132
:10149E0051F161C14CF162C14DF13CEC06F0010E0F
:0C14AE00016E0150010A01E1A0DF1200F4
:1014BA000101606B616B5FC163F18DDF005203E074
:1014CA00010E606F1BD05FC163F1ACDF00520CE00C
:1014DA00020E606F5FC166F1B7DE005203E0020ED2
:1014EA00616F01D0616B0AD05FC163F168DF00529E
:1014FA0003E0030E606F02D0040E606F2ED15F51BD
:10150A000D0A04E05F510A0A01E003D0280E5F6F5A
:10151A000BD05F51090A03E12B0E5F6F05D05F51B3
:10152A00080A02E12A0E5F6F29D15FC163F189DFE0
:10153A0000C05FF1410E005C5F6F040E5F271ED191
:10154A005F51300A03E1620E5F6F04D0310E5F5FB4
:10155A00590E5F2713D15F512D0A04E05F515F0ACC
:10156A0001E008D05F515F0A02E1020E616F2D0EA1
:10157A005F6FF1D05F512B0A04E05F513D0A01E031
:10158A0008D05F513D0A02E1020E616F2E0E5F6FB5
:10159A00E2D05F517B0A04E05F515B0A01E008D0A8
:1015AA005F517B0A02E1020E616F2F0E5F6FD3D08B
:1015BA005F517D0A04E05F515D0A01E008D05F5186
:1015CA007D0A02E1020E616F300E5F6FC4D05F5177
:1015DA005C0A04E05F517C0A01E008D05F517C0A92
:1015EA0002E1020E616F310E5F6FB5D05F51090AD9
:1015FA0003E12B0E5F6FAFD05F513A0A04E05F51EF
:10160A003B0A01E008D05F513A0A02E1020E616F1B
:10161A00330E5F6FA0D05F51270A04E05F51220AA0
:10162A0001E008D05F51220A02E1020E616F340E16
:10163A005F6F91D05F51600A04E05F517E0A01E05A
:10164A0008D05F517E0A02E1020E616F350E5F6FAC
:10165A0082D05F512C0A04E05F513C0A01E008D0B5
:10166A005F513C0A02E1020E616F360E5F6F73D062
:10167A005F512E0A04E05F513E0A01E008D05F5133
:10168A003E0A02E1020E616F370E5F6F64D05F514E
:10169A002F0A04E05F513F0A01E008D05F513F0A78
:1016AA0002E1020E616F380E5F6F55D05F51210A59
:1016BA0005E1020E616F1E0E5F6F4DD05F51400A49
:1016CA0005E1020E616F1F0E5F6F45D05F51230A5D
:1016DA0005E1020E616F200E5F6F3DD05F51240A53
:1016EA0005E1020E616F210E5F6F35D05F51250A49
:1016FA0005E1020E616F220E5F6F2DD05F515E0A07
:10170A0005E1020E616F230E5F6F25D05F51260A35
:10171A0005E1020E616F240E5F6F1DD05F512A0A28
:10172A0005E1020E616F250E5F6F15D05F51280A21
:10173A0005E1020E616F260E5F6F0DD05F51290A17
:10174A0005E1020E616F270E5F6F05D05F51200A17
:10175A0002E12C0E5F6F12D011D06051010AD8B489
:10176A00CED66051020AD8B4E0D66051030AD8B482
:10177A00E7D66051040AD8B4EED6EED761C140F577
:10178A000501416B5FC142F5436B446B456B466B88
:10179A00476B400E0101636F050E646F080E656F9B
:1017AA0036DE005201E1F5D7020E0B6ED40E0C6E36
:1017BA00850E0D6E0D2EFED70C2EFCD70B2EFAD7EA
:1017CA000501406B426B400E0101636F050E646FA9
:1017DA00080E656F1CDE005201E1F5D7020E0B6E92
:1017EA00D40E0C6E850E0D6E0D2EFED70C2EFCD768
:0617FA000B2EFAD71200CD
:101800000900F5CFE6FF0006FBE10106F9E1120051
:1018100001013751010A07E16DBA05D0686A698094
:101820006988020E376F68A406D069A404D0FB0E45
:101830006816B9EC06F06DA203D0B7EC06F0DCD068
:1018400068A019D069A017D03CEC06F0040E376FE1
:10185000200E0401026F040E036F080E016F000ECC
:101860000015006E00C000F48C0E0011006E00C068
:1018700000F4FE0E681668A806D069A804D09BEC98
:1018800006F0EF0E681668AC04D069AC02D0BF0E4B
:10189000681668AA04D069AA02D07AEC06F068A299
:1018A00002D069B26A6A040E0101375D03E2B7EC47
:1018B00006F0A2D069A69ED0726B040E725DD8B0FD
:1018C00099D068A694D06CCF5AF1F70E6816780EAE
:1018D0005A15016E0150000AD8A488D0FD0E5A1581
:1018E000016E026AFF0E0216000E021802E1000EDF
:1018F00001186DE17E0E5A15016E01C003F003322E
:10190000039E03C000F0000E016E00360090013609
:10191000003600900136000E0024026E040E0120F5
:10192000036E02C056F103C057F102C054F103C068
:1019300055F1040E5419006E00C054F102C0E9FFC5
:1019400003C0EAFFEECF00F000C001F03C0E01162C
:101950000132019E0132019E01500D0A35E1020E55
:101960005625E96E000E5721EA6EEECF01F0EECF5C
:1019700002F00250040A02E1280E011822E1020ED0
:101980005625E16E000E5721E26E200EE66E040E23
:10199000E66E716B080E715D14E2200EE16E040EAE
:1019A000E26E7151E126D8B0E22A280EE96E040EEB
:1019B000EA6E7151E926D8B0EA2AEECFE6FF712B24
:1019C000E9D7A0EC06F002D017EC06F00ED0FD0E21
:1019D0005A15016E026AFF0E0216000E021802E18D
:1019E000040E011802E1C4EC05F000D001D002D0D1
:0A19F000722B63D7B7EC06F012006B
:1019FA005DC1E9FF5EC1EAFFEE520AE05DC1E9FF9F
:101A0A005EC1EAFFEECF5FF153DD5D4B5E2BF0D78F
:021A1A001200B8
:101A1C00000E01015F6F050E606F400E616F050EC9
:101A2C00626F2FDD3D0E0B6EE10E0C6E3F0E0D6ED8
:101A3C000D2EFED70C2EFCD70B2EFAD70000000073
:021A4C00120086
:101A4E0048EC0EF0E4DFB40E5D6F000E5E6FCEDF7D
:101A5E00B70E01015D6F000E5E6FC8DFFD0E010156
:101A6E005D6F000E5E6FC2DFE00E01015D6F000E56
:101A7E005E6FBCDFD30E01015D6F000E5E6FB6DFD1
:101A8E00420E01015D6F000E5E6FB0DF650E01014B
:101A9E005D6F000E5E6FAADF290E01015D6F000EF5
:101AAE005E6FA4DF2E0E01015D6F000E5E6F9EDF76
:101ABE00A40E01015D6F000E5E6F98DFB10E010185
:101ACE005D6F000E5E6F92DF880E01015D6F000E7E
:101ADE005E6F8CDFA10E01015D6F000E5E6F86DF03
:041AEE00FFD7FFD748
:101C900010EE29F0F10E006E010E016EF20EF66EDE
:0E1CA0001A0EF76E000EF86E00EC0CF012003B
:051AF2002A2F0D0D007C
:101AF70023696E636C756465203C737464696F2E2B
:041B0700683E0D0027
:101B0B0009607E21402324255E262A28295F2B2D60
:101B1B003D2C2E2F3B275B5D5C3C3E3F3A227B7D71
:031B2B007C0D002E
:101B2E000923232323232323232323232323232391
:101B3E002323232323232323232323232323232367
:031B4E00236E0003
:101B5100097072696E7466282248656C6C6F205733
:091B61006F726C6422293B0D0037
:031B6A007D0D00EE
:0D1B6D00766F6964206D61696E28290D0096
:031B7A007B0D00E0
:031B7D002F2A000C
:101B8000094B6579626F61726420456D756C617493
:0C1B90006F722050726F6772616D0D0063
:0D1B9C0009303132333435363738390D0019
:101BA900094142434445464748494A4B4C4D4E4FEB
:0D1BB900505152535455565758595A0D006B
:101BC600096162636465666768696A6B6C6D6E6FEE
:0D1BD600707172737475767778797A0D00EE
:101BE30005010906A101050719E029E715002501EB
:101BF30075019508810295017508810395057501A5
:101C030005081901290591029501750391039506AC
:0F1C13007508150025650507190029658100C0B2
:101C220009022900010100803209040000020300B8
:101C32000000092101010001223F00070581034044
:091C420000010705010340000147
:101C4B001A0355005300420020004B006500790039
:0A1C5B0062006F0061007200640077
:101C650014034D006900630072006F006300680093
:041C75006900700092
:101C790012010002000000083412010000010102F3
:021C8900000158
:041C8B000403090441
:020000040030CA
:0E000000210E391EFF0381FF0FC00FE00F40DD
:00000001FF
